{
  "_format": "hh-sol-artifact-1",
  "contractName": "DAO",
  "sourceName": "contracts/DAO.sol",
  "abi": [
    {
      "anonymous": false,
      "inputs": [
        {
          "indexed": true,
          "internalType": "address",
          "name": "initiator",
          "type": "address"
        },
        {
          "indexed": false,
          "internalType": "bytes32",
          "name": "role",
          "type": "bytes32"
        },
        {
          "indexed": false,
          "internalType": "string",
          "name": "message",
          "type": "string"
        },
        {
          "indexed": true,
          "internalType": "address",
          "name": "beneficiary",
          "type": "address"
        },
        {
          "indexed": false,
          "internalType": "uint256",
          "name": "amount",
          "type": "uint256"
        }
      ],
      "name": "Action",
      "type": "event"
    },
    {
      "anonymous": false,
      "inputs": [
        {
          "indexed": true,
          "internalType": "bytes32",
          "name": "role",
          "type": "bytes32"
        },
        {
          "indexed": true,
          "internalType": "bytes32",
          "name": "previousAdminRole",
          "type": "bytes32"
        },
        {
          "indexed": true,
          "internalType": "bytes32",
          "name": "newAdminRole",
          "type": "bytes32"
        }
      ],
      "name": "RoleAdminChanged",
      "type": "event"
    },
    {
      "anonymous": false,
      "inputs": [
        {
          "indexed": true,
          "internalType": "bytes32",
          "name": "role",
          "type": "bytes32"
        },
        {
          "indexed": true,
          "internalType": "address",
          "name": "account",
          "type": "address"
        },
        {
          "indexed": true,
          "internalType": "address",
          "name": "sender",
          "type": "address"
        }
      ],
      "name": "RoleGranted",
      "type": "event"
    },
    {
      "anonymous": false,
      "inputs": [
        {
          "indexed": true,
          "internalType": "bytes32",
          "name": "role",
          "type": "bytes32"
        },
        {
          "indexed": true,
          "internalType": "address",
          "name": "account",
          "type": "address"
        },
        {
          "indexed": true,
          "internalType": "address",
          "name": "sender",
          "type": "address"
        }
      ],
      "name": "RoleRevoked",
      "type": "event"
    },
    {
      "inputs": [],
      "name": "DEFAULT_ADMIN_ROLE",
      "outputs": [
        {
          "internalType": "bytes32",
          "name": "",
          "type": "bytes32"
        }
      ],
      "stateMutability": "view",
      "type": "function"
    },
    {
      "inputs": [
        {
          "internalType": "uint32",
          "name": "proposalId",
          "type": "uint32"
        },
        {
          "internalType": "bool",
          "name": "chosen",
          "type": "bool"
        }
      ],
      "name": "Vote",
      "outputs": [
        {
          "components": [
            {
              "internalType": "address",
              "name": "voter",
              "type": "address"
            },
            {
              "internalType": "uint256",
              "name": "timestamp",
              "type": "uint256"
            },
            {
              "internalType": "bool",
              "name": "chosen",
              "type": "bool"
            }
          ],
          "internalType": "struct DAO.VotedStruct",
          "name": "",
          "type": "tuple"
        }
      ],
      "stateMutability": "nonpayable",
      "type": "function"
    },
    {
      "inputs": [],
      "name": "contribute",
      "outputs": [],
      "stateMutability": "payable",
      "type": "function"
    },
    {
      "inputs": [
        {
          "internalType": "string",
          "name": "title",
          "type": "string"
        },
        {
          "internalType": "string",
          "name": "description",
          "type": "string"
        },
        {
          "internalType": "address",
          "name": "beneficiary",
          "type": "address"
        },
        {
          "internalType": "uint256",
          "name": "amount",
          "type": "uint256"
        }
      ],
      "name": "createProposal",
      "outputs": [],
      "stateMutability": "nonpayable",
      "type": "function"
    },
    {
      "inputs": [],
      "name": "daoBalance",
      "outputs": [
        {
          "internalType": "uint256",
          "name": "",
          "type": "uint256"
        }
      ],
      "stateMutability": "view",
      "type": "function"
    },
    {
      "inputs": [
        {
          "internalType": "uint256",
          "name": "proposalId",
          "type": "uint256"
        }
      ],
      "name": "getProposal",
      "outputs": [
        {
          "components": [
            {
              "internalType": "uint256",
              "name": "id",
              "type": "uint256"
            },
            {
              "internalType": "uint256",
              "name": "amount",
              "type": "uint256"
            },
            {
              "internalType": "uint256",
              "name": "duration",
              "type": "uint256"
            },
            {
              "internalType": "uint256",
              "name": "upvotes",
              "type": "uint256"
            },
            {
              "internalType": "uint256",
              "name": "downvotes",
              "type": "uint256"
            },
            {
              "internalType": "string",
              "name": "title",
              "type": "string"
            },
            {
              "internalType": "string",
              "name": "description",
              "type": "string"
            },
            {
              "internalType": "bool",
              "name": "passed",
              "type": "bool"
            },
            {
              "internalType": "bool",
              "name": "paid",
              "type": "bool"
            },
            {
              "internalType": "address payable",
              "name": "beneficiary",
              "type": "address"
            },
            {
              "internalType": "address",
              "name": "proposer",
              "type": "address"
            },
            {
              "internalType": "address",
              "name": "executor",
              "type": "address"
            }
          ],
          "internalType": "struct DAO.ProposalStruct",
          "name": "",
          "type": "tuple"
        }
      ],
      "stateMutability": "view",
      "type": "function"
    },
    {
      "inputs": [],
      "name": "getProposals",
      "outputs": [
        {
          "components": [
            {
              "internalType": "uint256",
              "name": "id",
              "type": "uint256"
            },
            {
              "internalType": "uint256",
              "name": "amount",
              "type": "uint256"
            },
            {
              "internalType": "uint256",
              "name": "duration",
              "type": "uint256"
            },
            {
              "internalType": "uint256",
              "name": "upvotes",
              "type": "uint256"
            },
            {
              "internalType": "uint256",
              "name": "downvotes",
              "type": "uint256"
            },
            {
              "internalType": "string",
              "name": "title",
              "type": "string"
            },
            {
              "internalType": "string",
              "name": "description",
              "type": "string"
            },
            {
              "internalType": "bool",
              "name": "passed",
              "type": "bool"
            },
            {
              "internalType": "bool",
              "name": "paid",
              "type": "bool"
            },
            {
              "internalType": "address payable",
              "name": "beneficiary",
              "type": "address"
            },
            {
              "internalType": "address",
              "name": "proposer",
              "type": "address"
            },
            {
              "internalType": "address",
              "name": "executor",
              "type": "address"
            }
          ],
          "internalType": "struct DAO.ProposalStruct[]",
          "name": "props",
          "type": "tuple[]"
        }
      ],
      "stateMutability": "view",
      "type": "function"
    },
    {
      "inputs": [
        {
          "internalType": "bytes32",
          "name": "role",
          "type": "bytes32"
        }
      ],
      "name": "getRoleAdmin",
      "outputs": [
        {
          "internalType": "bytes32",
          "name": "",
          "type": "bytes32"
        }
      ],
      "stateMutability": "view",
      "type": "function"
    },
    {
      "inputs": [],
      "name": "getStakeholderBalance",
      "outputs": [
        {
          "internalType": "uint256",
          "name": "",
          "type": "uint256"
        }
      ],
      "stateMutability": "view",
      "type": "function"
    },
    {
      "inputs": [],
      "name": "getStakeholderVotes",
      "outputs": [
        {
          "internalType": "uint256[]",
          "name": "",
          "type": "uint256[]"
        }
      ],
      "stateMutability": "view",
      "type": "function"
    },
    {
      "inputs": [
        {
          "internalType": "uint256",
          "name": "proposalId",
          "type": "uint256"
        }
      ],
      "name": "getVotesOf",
      "outputs": [
        {
          "components": [
            {
              "internalType": "address",
              "name": "voter",
              "type": "address"
            },
            {
              "internalType": "uint256",
              "name": "timestamp",
              "type": "uint256"
            },
            {
              "internalType": "bool",
              "name": "chosen",
              "type": "bool"
            }
          ],
          "internalType": "struct DAO.VotedStruct[]",
          "name": "",
          "type": "tuple[]"
        }
      ],
      "stateMutability": "view",
      "type": "function"
    },
    {
      "inputs": [
        {
          "internalType": "bytes32",
          "name": "role",
          "type": "bytes32"
        },
        {
          "internalType": "address",
          "name": "account",
          "type": "address"
        }
      ],
      "name": "grantRole",
      "outputs": [],
      "stateMutability": "nonpayable",
      "type": "function"
    },
    {
      "inputs": [
        {
          "internalType": "bytes32",
          "name": "role",
          "type": "bytes32"
        },
        {
          "internalType": "address",
          "name": "account",
          "type": "address"
        }
      ],
      "name": "hasRole",
      "outputs": [
        {
          "internalType": "bool",
          "name": "",
          "type": "bool"
        }
      ],
      "stateMutability": "view",
      "type": "function"
    },
    {
      "inputs": [
        {
          "internalType": "uint256",
          "name": "proposalId",
          "type": "uint256"
        }
      ],
      "name": "payBeneficiary",
      "outputs": [
        {
          "internalType": "uint256",
          "name": "",
          "type": "uint256"
        }
      ],
      "stateMutability": "nonpayable",
      "type": "function"
    },
    {
      "inputs": [
        {
          "internalType": "bytes32",
          "name": "role",
          "type": "bytes32"
        },
        {
          "internalType": "address",
          "name": "account",
          "type": "address"
        }
      ],
      "name": "renounceRole",
      "outputs": [],
      "stateMutability": "nonpayable",
      "type": "function"
    },
    {
      "inputs": [
        {
          "internalType": "bytes32",
          "name": "role",
          "type": "bytes32"
        },
        {
          "internalType": "address",
          "name": "account",
          "type": "address"
        }
      ],
      "name": "revokeRole",
      "outputs": [],
      "stateMutability": "nonpayable",
      "type": "function"
    },
    {
      "inputs": [
        {
          "internalType": "bytes4",
          "name": "interfaceId",
          "type": "bytes4"
        }
      ],
      "name": "supportsInterface",
      "outputs": [
        {
          "internalType": "bool",
          "name": "",
          "type": "bool"
        }
      ],
      "stateMutability": "view",
      "type": "function"
    }
  ],
  "bytecode": "0x6101006040527fa0bb1af1c90aa52ed052b92714ff0087008cc720049bf1af77cca2600b31e80c6080908152507ff4bb84e1768dd286358a736d195a0b228621173f655a73b89bf8b191ed0ba07d60a09081525066071afd498d000060c09081525060b463ffffffff1660e09063ffffffff1660e01b81525034801561008457600080fd5b50600160008190555060805160a05160c05160e05160e01c613bed61010f60003960006112be015260006118d60152600081816104ea01528181610776015281816107ea01528181610a7d015281816110570152818161112301528181611347015281816114350152818161185c015281816119440152611baa015260006119fd0152613bed6000f3fe6080604052600436106100fe5760003560e01c80636a80d84d11610095578063a22f1db711610064578063a22f1db71461036d578063bd97281614610398578063c7f758a8146103c3578063d547741f14610400578063d7bb99ba14610429576100fe565b80636a80d84d146102b15780637cdc2eb7146102dc57806391d1485414610305578063a217fddf14610342576100fe565b80632f2ff15d116100d15780632f2ff15d146101f757806336568abe1461022057806362564c481461024957806369a136dc14610274576100fe565b806301ffc9a714610103578063119c37c8146101405780631d2ce4a41461017d578063248a9ca3146101ba575b600080fd5b34801561010f57600080fd5b5061012a6004803603810190610125919061269d565b610433565b6040516101379190612ff9565b60405180910390f35b34801561014c57600080fd5b5061016760048036038101906101629190612769565b6104ad565b60405161017491906132be565b60405180910390f35b34801561018957600080fd5b506101a4600480360381019061019f9190612796565b6107c4565b6040516101b191906132a3565b60405180910390f35b3480156101c657600080fd5b506101e160048036038101906101dc9190612630565b610af4565b6040516101ee9190613014565b60405180910390f35b34801561020357600080fd5b5061021e6004803603810190610219919061265d565b610b14565b005b34801561022c57600080fd5b506102476004803603810190610242919061265d565b610b35565b005b34801561025557600080fd5b5061025e610bb8565b60405161026b9190612f93565b60405180910390f35b34801561028057600080fd5b5061029b60048036038101906102969190612769565b610f2d565b6040516102a89190612fb5565b60405180910390f35b3480156102bd57600080fd5b506102c661101a565b6040516102d391906132be565b60405180910390f35b3480156102e857600080fd5b5061030360048036038101906102fe91906126ca565b611105565b005b34801561031157600080fd5b5061032c6004803603810190610327919061265d565b611386565b6040516103399190612ff9565b60405180910390f35b34801561034e57600080fd5b506103576113f1565b6040516103649190613014565b60405180910390f35b34801561037957600080fd5b506103826113f8565b60405161038f9190612fd7565b60405180910390f35b3480156103a457600080fd5b506103ad611531565b6040516103ba91906132be565b60405180910390f35b3480156103cf57600080fd5b506103ea60048036038101906103e59190612769565b611537565b6040516103f79190613281565b60405180910390f35b34801561040c57600080fd5b506104276004803603810190610422919061265d565b6117f3565b005b610431611814565b005b60007f7965db0b000000000000000000000000000000000000000000000000000000007bffffffffffffffffffffffffffffffffffffffffffffffffffffffff1916827bffffffffffffffffffffffffffffffffffffffffffffffffffffffff191614806104a657506104a582611be2565b5b9050919050565b60006040518060400160405280602081526020017f556e617574686f72697a6564203a205374616b65686f6c64657273204f6e6c7981525061050f7f000000000000000000000000000000000000000000000000000000000000000033611386565b8190610551576040517f08c379a0000000000000000000000000000000000000000000000000000000008152600401610548919061311f565b60405180910390fd5b5061055a611c4c565b6000600460008581526020019081526020016000209050806001015460035410156105ba576040517f08c379a00000000000000000000000000000000000000000000000000000000081526004016105b190613181565b60405180910390fd5b8060070160019054906101000a900460ff161561060c576040517f08c379a0000000000000000000000000000000000000000000000000000000008152600401610603906131e1565b60405180910390fd5b8060040154816003015411610656576040517f08c379a000000000000000000000000000000000000000000000000000000000815260040161064d906131a1565b60405180910390fd5b60018160070160016101000a81548160ff021916908315150217905550338160090160006101000a81548173ffffffffffffffffffffffffffffffffffffffff021916908373ffffffffffffffffffffffffffffffffffffffff16021790555080600101546003546106c891906134cd565b6003819055506107008160070160029054906101000a900473ffffffffffffffffffffffffffffffffffffffff168260010154611c9c565b508060070160029054906101000a900473ffffffffffffffffffffffffffffffffffffffff1673ffffffffffffffffffffffffffffffffffffffff163373ffffffffffffffffffffffffffffffffffffffff167fa596782d699d74613fcbf59d33e720baabd313d6be9c95e2268f305430305eb77f000000000000000000000000000000000000000000000000000000000000000084600101546040516107a892919061306b565b60405180910390a36003549250506107be611d54565b50919050565b6107cc6123bf565b6040518060600160405280602f8152602001613b57602f913961080f7f000000000000000000000000000000000000000000000000000000000000000033611386565b8190610851576040517f08c379a0000000000000000000000000000000000000000000000000000000008152600401610848919061311f565b60405180910390fd5b506000600460008663ffffffff168152602001908152602001600020905061087881611d5e565b831561089d5780600301600081548092919061089390613670565b91905055506108b8565b8060040160008154809291906108b290613670565b91905055505b600560003373ffffffffffffffffffffffffffffffffffffffff1673ffffffffffffffffffffffffffffffffffffffff16815260200190815260200160002081600001549080600181540180825580915050600190039060005260206000200160009091909190915055600660008260000154815260200190815260200160002060405180606001604052803373ffffffffffffffffffffffffffffffffffffffff168152602001428152602001861515815250908060018154018082558091505060019003906000526020600020906003020160009091909190915060008201518160000160006101000a81548173ffffffffffffffffffffffffffffffffffffffff021916908373ffffffffffffffffffffffffffffffffffffffff1602179055506020820151816001015560408201518160020160006101000a81548160ff02191690831515021790555050508060070160029054906101000a900473ffffffffffffffffffffffffffffffffffffffff1673ffffffffffffffffffffffffffffffffffffffff163373ffffffffffffffffffffffffffffffffffffffff167fa596782d699d74613fcbf59d33e720baabd313d6be9c95e2268f305430305eb77f00000000000000000000000000000000000000000000000000000000000000008460010154604051610aaf92919061302f565b60405180910390a360405180606001604052803373ffffffffffffffffffffffffffffffffffffffff1681526020014281526020018515158152509250505092915050565b600060016000838152602001908152602001600020600101549050919050565b610b1d82610af4565b610b2681611ef3565b610b308383611f07565b505050565b610b3d611fe7565b73ffffffffffffffffffffffffffffffffffffffff168173ffffffffffffffffffffffffffffffffffffffff1614610baa576040517f08c379a0000000000000000000000000000000000000000000000000000000008152600401610ba190613261565b60405180910390fd5b610bb48282611fef565b5050565b6060600260009054906101000a900463ffffffff1663ffffffff1667ffffffffffffffff811115610bec57610beb613773565b5b604051908082528060200260200182016040528015610c2557816020015b610c126123f8565b815260200190600190039081610c0a5790505b50905060005b600260009054906101000a900463ffffffff1663ffffffff16811015610f295760046000828152602001908152602001600020604051806101800160405290816000820154815260200160018201548152602001600282015481526020016003820154815260200160048201548152602001600582018054610cac9061360d565b80601f0160208091040260200160405190810160405280929190818152602001828054610cd89061360d565b8015610d255780601f10610cfa57610100808354040283529160200191610d25565b820191906000526020600020905b815481529060010190602001808311610d0857829003601f168201915b50505050508152602001600682018054610d3e9061360d565b80601f0160208091040260200160405190810160405280929190818152602001828054610d6a9061360d565b8015610db75780601f10610d8c57610100808354040283529160200191610db7565b820191906000526020600020905b815481529060010190602001808311610d9a57829003601f168201915b505050505081526020016007820160009054906101000a900460ff161515151581526020016007820160019054906101000a900460ff161515151581526020016007820160029054906101000a900473ffffffffffffffffffffffffffffffffffffffff1673ffffffffffffffffffffffffffffffffffffffff1673ffffffffffffffffffffffffffffffffffffffff1681526020016008820160009054906101000a900473ffffffffffffffffffffffffffffffffffffffff1673ffffffffffffffffffffffffffffffffffffffff1673ffffffffffffffffffffffffffffffffffffffff1681526020016009820160009054906101000a900473ffffffffffffffffffffffffffffffffffffffff1673ffffffffffffffffffffffffffffffffffffffff1673ffffffffffffffffffffffffffffffffffffffff1681525050828281518110610f0b57610f0a613744565b5b60200260200101819052508080610f2190613670565b915050610c2b565b5090565b606060066000838152602001908152602001600020805480602002602001604051908101604052809291908181526020016000905b8282101561100f57838290600052602060002090600302016040518060600160405290816000820160009054906101000a900473ffffffffffffffffffffffffffffffffffffffff1673ffffffffffffffffffffffffffffffffffffffff1673ffffffffffffffffffffffffffffffffffffffff168152602001600182015481526020016002820160009054906101000a900460ff16151515158152505081526020019060010190610f62565b505050509050919050565b60006040518060400160405280602081526020017f556e617574686f72697a6564203a206e6f742061207374616b65686f6c64657281525061107c7f000000000000000000000000000000000000000000000000000000000000000033611386565b81906110be576040517f08c379a00000000000000000000000000000000000000000000000000000000081526004016110b5919061311f565b60405180910390fd5b50600860003373ffffffffffffffffffffffffffffffffffffffff1673ffffffffffffffffffffffffffffffffffffffff1681526020019081526020016000205491505090565b604051806060016040528060328152602001613b86603291396111487f000000000000000000000000000000000000000000000000000000000000000033611386565b819061118a576040517f08c379a0000000000000000000000000000000000000000000000000000000008152600401611181919061311f565b60405180910390fd5b5060006002600081819054906101000a900463ffffffff16809291906111af906136b9565b91906101000a81548163ffffffff021916908363ffffffff16021790555090506000600460008363ffffffff16815260200190815260200160002090508163ffffffff168160000181905550338160080160006101000a81548173ffffffffffffffffffffffffffffffffffffffff021916908373ffffffffffffffffffffffffffffffffffffffff1602179055508681600501908051906020019061125692919061249f565b508581600601908051906020019061126f92919061249f565b50848160070160026101000a81548173ffffffffffffffffffffffffffffffffffffffff021916908373ffffffffffffffffffffffffffffffffffffffff1602179055508381600101819055507f000000000000000000000000000000000000000000000000000000000000000063ffffffff16426112ee919061341d565b81600201819055508473ffffffffffffffffffffffffffffffffffffffff163373ffffffffffffffffffffffffffffffffffffffff167fa596782d699d74613fcbf59d33e720baabd313d6be9c95e2268f305430305eb77f0000000000000000000000000000000000000000000000000000000000000000876040516113759291906130a7565b60405180910390a350505050505050565b60006001600084815260200190815260200160002060000160008373ffffffffffffffffffffffffffffffffffffffff1673ffffffffffffffffffffffffffffffffffffffff16815260200190815260200160002060009054906101000a900460ff16905092915050565b6000801b81565b60606040518060400160405280602081526020017f556e617574686f72697a6564203a206e6f742061207374616b65686f6c64657281525061145a7f000000000000000000000000000000000000000000000000000000000000000033611386565b819061149c576040517f08c379a0000000000000000000000000000000000000000000000000000000008152600401611493919061311f565b60405180910390fd5b50600560003373ffffffffffffffffffffffffffffffffffffffff1673ffffffffffffffffffffffffffffffffffffffff16815260200190815260200160002080548060200260200160405190810160405280929190818152602001828054801561152657602002820191906000526020600020905b815481526020019060010190808311611512575b505050505091505090565b60035481565b61153f6123f8565b600460008381526020019081526020016000206040518061018001604052908160008201548152602001600182015481526020016002820154815260200160038201548152602001600482015481526020016005820180546115a09061360d565b80601f01602080910402602001604051908101604052809291908181526020018280546115cc9061360d565b80156116195780601f106115ee57610100808354040283529160200191611619565b820191906000526020600020905b8154815290600101906020018083116115fc57829003601f168201915b505050505081526020016006820180546116329061360d565b80601f016020809104026020016040519081016040528092919081815260200182805461165e9061360d565b80156116ab5780601f10611680576101008083540402835291602001916116ab565b820191906000526020600020905b81548152906001019060200180831161168e57829003601f168201915b505050505081526020016007820160009054906101000a900460ff161515151581526020016007820160019054906101000a900460ff161515151581526020016007820160029054906101000a900473ffffffffffffffffffffffffffffffffffffffff1673ffffffffffffffffffffffffffffffffffffffff1673ffffffffffffffffffffffffffffffffffffffff1681526020016008820160009054906101000a900473ffffffffffffffffffffffffffffffffffffffff1673ffffffffffffffffffffffffffffffffffffffff1673ffffffffffffffffffffffffffffffffffffffff1681526020016009820160009054906101000a900473ffffffffffffffffffffffffffffffffffffffff1673ffffffffffffffffffffffffffffffffffffffff1673ffffffffffffffffffffffffffffffffffffffff16815250509050919050565b6117fc82610af4565b61180581611ef3565b61180f8383611fef565b505050565b60003411611857576040517f08c379a000000000000000000000000000000000000000000000000000000000815260040161184e906131c1565b60405180910390fd5b6118817f000000000000000000000000000000000000000000000000000000000000000033611386565b611a2857600034600760003373ffffffffffffffffffffffffffffffffffffffff1673ffffffffffffffffffffffffffffffffffffffff168152602001908152602001600020546118d2919061341d565b90507f0000000000000000000000000000000000000000000000000000000000000000811061196a5780600860003373ffffffffffffffffffffffffffffffffffffffff1673ffffffffffffffffffffffffffffffffffffffff168152602001908152602001600020819055506119697f000000000000000000000000000000000000000000000000000000000000000033611f07565b5b34600760003373ffffffffffffffffffffffffffffffffffffffff1673ffffffffffffffffffffffffffffffffffffffff168152602001908152602001600020546119b5919061341d565b600760003373ffffffffffffffffffffffffffffffffffffffff1673ffffffffffffffffffffffffffffffffffffffff16815260200190815260200160002081905550611a227f000000000000000000000000000000000000000000000000000000000000000033611f07565b50611b45565b34600760003373ffffffffffffffffffffffffffffffffffffffff1673ffffffffffffffffffffffffffffffffffffffff16815260200190815260200160002054611a73919061341d565b600760003373ffffffffffffffffffffffffffffffffffffffff1673ffffffffffffffffffffffffffffffffffffffff1681526020019081526020016000208190555034600860003373ffffffffffffffffffffffffffffffffffffffff1673ffffffffffffffffffffffffffffffffffffffff16815260200190815260200160002054611b01919061341d565b600860003373ffffffffffffffffffffffffffffffffffffffff1673ffffffffffffffffffffffffffffffffffffffff168152602001908152602001600020819055505b34600354611b53919061341d565b6003819055503073ffffffffffffffffffffffffffffffffffffffff163373ffffffffffffffffffffffffffffffffffffffff167fa596782d699d74613fcbf59d33e720baabd313d6be9c95e2268f305430305eb77f000000000000000000000000000000000000000000000000000000000000000034604051611bd89291906130e3565b60405180910390a3565b60007f01ffc9a7000000000000000000000000000000000000000000000000000000007bffffffffffffffffffffffffffffffffffffffffffffffffffffffff1916827bffffffffffffffffffffffffffffffffffffffffffffffffffffffff1916149050919050565b60026000541415611c92576040517f08c379a0000000000000000000000000000000000000000000000000000000008152600401611c8990613221565b60405180910390fd5b6002600081905550565b6000808373ffffffffffffffffffffffffffffffffffffffff1683604051611cc390612f44565b60006040518083038185875af1925050503d8060008114611d00576040519150601f19603f3d011682016040523d82523d6000602084013e611d05565b606091505b5050905080611d49576040517f08c379a0000000000000000000000000000000000000000000000000000000008152600401611d4090613201565b60405180910390fd5b600191505092915050565b6001600081905550565b8060070160009054906101000a900460ff1680611d7f575042816002015411155b15611ddc5760018160070160006101000a81548160ff0219169083151502179055506040517f08c379a0000000000000000000000000000000000000000000000000000000008152600401611dd390613241565b60405180910390fd5b6000600560003373ffffffffffffffffffffffffffffffffffffffff1673ffffffffffffffffffffffffffffffffffffffff168152602001908152602001600020805480602002602001604051908101604052809291908181526020018280548015611e6757602002820191906000526020600020905b815481526020019060010190808311611e53575b5050505050905060005b8151811015611eee57818181518110611e8d57611e8c613744565b5b602002602001015183600001541415611edb576040517f08c379a0000000000000000000000000000000000000000000000000000000008152600401611ed290613161565b60405180910390fd5b8080611ee690613670565b915050611e71565b505050565b611f0481611eff611fe7565b6120d1565b50565b611f118282611386565b611fe357600180600084815260200190815260200160002060000160008373ffffffffffffffffffffffffffffffffffffffff1673ffffffffffffffffffffffffffffffffffffffff16815260200190815260200160002060006101000a81548160ff021916908315150217905550611f88611fe7565b73ffffffffffffffffffffffffffffffffffffffff168173ffffffffffffffffffffffffffffffffffffffff16837f2f8788117e7eff1d82e926ec794901d17c78024a50270940304540a733656f0d60405160405180910390a45b5050565b600033905090565b611ff98282611386565b156120cd5760006001600084815260200190815260200160002060000160008373ffffffffffffffffffffffffffffffffffffffff1673ffffffffffffffffffffffffffffffffffffffff16815260200190815260200160002060006101000a81548160ff021916908315150217905550612072611fe7565b73ffffffffffffffffffffffffffffffffffffffff168173ffffffffffffffffffffffffffffffffffffffff16837ff6391f5c32d9c69d2a47ea670b442974b53935d1edc7fd64eb21e047a839171b60405160405180910390a45b5050565b6120db8282611386565b612152576120e881612156565b6120f68360001c6020612183565b604051602001612107929190612f59565b6040516020818303038152906040526040517f08c379a0000000000000000000000000000000000000000000000000000000008152600401612149919061311f565b60405180910390fd5b5050565b606061217c8273ffffffffffffffffffffffffffffffffffffffff16601460ff16612183565b9050919050565b6060600060028360026121969190613473565b6121a0919061341d565b67ffffffffffffffff8111156121b9576121b8613773565b5b6040519080825280601f01601f1916602001820160405280156121eb5781602001600182028036833780820191505090505b5090507f30000000000000000000000000000000000000000000000000000000000000008160008151811061222357612222613744565b5b60200101907effffffffffffffffffffffffffffffffffffffffffffffffffffffffffffff1916908160001a9053507f78000000000000000000000000000000000000000000000000000000000000008160018151811061228757612286613744565b5b60200101907effffffffffffffffffffffffffffffffffffffffffffffffffffffffffffff1916908160001a905350600060018460026122c79190613473565b6122d1919061341d565b90505b6001811115612371577f3031323334353637383961626364656600000000000000000000000000000000600f86166010811061231357612312613744565b5b1a60f81b82828151811061232a57612329613744565b5b60200101907effffffffffffffffffffffffffffffffffffffffffffffffffffffffffffff1916908160001a905350600485901c94508061236a906135e3565b90506122d4565b50600084146123b5576040517f08c379a00000000000000000000000000000000000000000000000000000000081526004016123ac90613141565b60405180910390fd5b8091505092915050565b6040518060600160405280600073ffffffffffffffffffffffffffffffffffffffff168152602001600081526020016000151581525090565b60405180610180016040528060008152602001600081526020016000815260200160008152602001600081526020016060815260200160608152602001600015158152602001600015158152602001600073ffffffffffffffffffffffffffffffffffffffff168152602001600073ffffffffffffffffffffffffffffffffffffffff168152602001600073ffffffffffffffffffffffffffffffffffffffff1681525090565b8280546124ab9061360d565b90600052602060002090601f0160209004810192826124cd5760008555612514565b82601f106124e657805160ff1916838001178555612514565b82800160010185558215612514579182015b828111156125135782518255916020019190600101906124f8565b5b5090506125219190612525565b5090565b5b8082111561253e576000816000905550600101612526565b5090565b6000612555612550846132fe565b6132d9565b905082815260208101848484011115612571576125706137a7565b5b61257c8482856135a1565b509392505050565b60008135905061259381613acc565b92915050565b6000813590506125a881613ae3565b92915050565b6000813590506125bd81613afa565b92915050565b6000813590506125d281613b11565b92915050565b600082601f8301126125ed576125ec6137a2565b5b81356125fd848260208601612542565b91505092915050565b60008135905061261581613b28565b92915050565b60008135905061262a81613b3f565b92915050565b600060208284031215612646576126456137b1565b5b6000612654848285016125ae565b91505092915050565b60008060408385031215612674576126736137b1565b5b6000612682858286016125ae565b925050602061269385828601612584565b9150509250929050565b6000602082840312156126b3576126b26137b1565b5b60006126c1848285016125c3565b91505092915050565b600080600080608085870312156126e4576126e36137b1565b5b600085013567ffffffffffffffff811115612702576127016137ac565b5b61270e878288016125d8565b945050602085013567ffffffffffffffff81111561272f5761272e6137ac565b5b61273b878288016125d8565b935050604061274c87828801612584565b925050606061275d87828801612606565b91505092959194509250565b60006020828403121561277f5761277e6137b1565b5b600061278d84828501612606565b91505092915050565b600080604083850312156127ad576127ac6137b1565b5b60006127bb8582860161261b565b92505060206127cc85828601612599565b9150509250929050565b60006127e28383612c8c565b905092915050565b60006127f68383612ea2565b60608301905092915050565b600061280e8383612f26565b60208301905092915050565b61282381613513565b82525050565b61283281613501565b82525050565b60006128438261335f565b61284d81856133b2565b93508360208202850161285f8561332f565b8060005b8581101561289b578484038952815161287c85826127d6565b94506128878361338b565b925060208a01995050600181019050612863565b50829750879550505050505092915050565b60006128b88261336a565b6128c281856133c3565b93506128cd8361333f565b8060005b838110156128fe5781516128e588826127ea565b97506128f083613398565b9250506001810190506128d1565b5085935050505092915050565b600061291682613375565b61292081856133d4565b935061292b8361334f565b8060005b8381101561295c5781516129438882612802565b975061294e836133a5565b92505060018101905061292f565b5085935050505092915050565b61297281613525565b82525050565b61298181613525565b82525050565b61299081613531565b82525050565b60006129a182613380565b6129ab81856133f0565b93506129bb8185602086016135b0565b6129c4816137b6565b840191505092915050565b60006129da82613380565b6129e48185613401565b93506129f48185602086016135b0565b6129fd816137b6565b840191505092915050565b6000612a1382613380565b612a1d8185613412565b9350612a2d8185602086016135b0565b80840191505092915050565b6000612a46600d83613401565b9150612a51826137c7565b602082019050919050565b6000612a69602083613401565b9150612a74826137f0565b602082019050919050565b6000612a8c601983613401565b9150612a9782613819565b602082019050919050565b6000612aaf601283613401565b9150612aba82613842565b602082019050919050565b6000612ad2601283613401565b9150612add8261386b565b602082019050919050565b6000612af5602283613401565b9150612b0082613894565b604082019050919050565b6000612b18601283613401565b9150612b23826138e3565b602082019050919050565b6000612b3b601783613401565b9150612b468261390c565b602082019050919050565b6000612b5e602383613401565b9150612b6982613935565b604082019050919050565b6000612b816000836133e5565b9150612b8c82613984565b600082019050919050565b6000612ba4601783613412565b9150612baf82613987565b601782019050919050565b6000612bc7600f83613401565b9150612bd2826139b0565b602082019050919050565b6000612bea601f83613401565b9150612bf5826139d9565b602082019050919050565b6000612c0d601583613401565b9150612c1882613a02565b602082019050919050565b6000612c30601183613412565b9150612c3b82613a2b565b601182019050919050565b6000612c53601983613401565b9150612c5e82613a54565b602082019050919050565b6000612c76602f83613401565b9150612c8182613a7d565b604082019050919050565b600061018083016000830151612ca56000860182612f26565b506020830151612cb86020860182612f26565b506040830151612ccb6040860182612f26565b506060830151612cde6060860182612f26565b506080830151612cf16080860182612f26565b5060a083015184820360a0860152612d098282612996565b91505060c083015184820360c0860152612d238282612996565b91505060e0830151612d3860e0860182612969565b50610100830151612d4d610100860182612969565b50610120830151612d6261012086018261281a565b50610140830151612d77610140860182612829565b50610160830151612d8c610160860182612829565b508091505092915050565b600061018083016000830151612db06000860182612f26565b506020830151612dc36020860182612f26565b506040830151612dd66040860182612f26565b506060830151612de96060860182612f26565b506080830151612dfc6080860182612f26565b5060a083015184820360a0860152612e148282612996565b91505060c083015184820360c0860152612e2e8282612996565b91505060e0830151612e4360e0860182612969565b50610100830151612e58610100860182612969565b50610120830151612e6d61012086018261281a565b50610140830151612e82610140860182612829565b50610160830151612e97610160860182612829565b508091505092915050565b606082016000820151612eb86000850182612829565b506020820151612ecb6020850182612f26565b506040820151612ede6040850182612969565b50505050565b606082016000820151612efa6000850182612829565b506020820151612f0d6020850182612f26565b506040820151612f206040850182612969565b50505050565b612f2f81613587565b82525050565b612f3e81613587565b82525050565b6000612f4f82612b74565b9150819050919050565b6000612f6482612b97565b9150612f708285612a08565b9150612f7b82612c23565b9150612f878284612a08565b91508190509392505050565b60006020820190508181036000830152612fad8184612838565b905092915050565b60006020820190508181036000830152612fcf81846128ad565b905092915050565b60006020820190508181036000830152612ff1818461290b565b905092915050565b600060208201905061300e6000830184612978565b92915050565b60006020820190506130296000830184612987565b92915050565b60006060820190506130446000830185612987565b818103602083015261305581612a39565b90506130646040830184612f35565b9392505050565b60006060820190506130806000830185612987565b818103602083015261309181612b0b565b90506130a06040830184612f35565b9392505050565b60006060820190506130bc6000830185612987565b81810360208301526130cd81612bba565b90506130dc6040830184612f35565b9392505050565b60006060820190506130f86000830185612987565b818103602083015261310981612c00565b90506131186040830184612f35565b9392505050565b6000602082019050818103600083015261313981846129cf565b905092915050565b6000602082019050818103600083015261315a81612a5c565b9050919050565b6000602082019050818103600083015261317a81612a7f565b9050919050565b6000602082019050818103600083015261319a81612aa2565b9050919050565b600060208201905081810360008301526131ba81612ac5565b9050919050565b600060208201905081810360008301526131da81612ae8565b9050919050565b600060208201905081810360008301526131fa81612b2e565b9050919050565b6000602082019050818103600083015261321a81612b51565b9050919050565b6000602082019050818103600083015261323a81612bdd565b9050919050565b6000602082019050818103600083015261325a81612c46565b9050919050565b6000602082019050818103600083015261327a81612c69565b9050919050565b6000602082019050818103600083015261329b8184612d97565b905092915050565b60006060820190506132b86000830184612ee4565b92915050565b60006020820190506132d36000830184612f35565b92915050565b60006132e36132f4565b90506132ef828261363f565b919050565b6000604051905090565b600067ffffffffffffffff82111561331957613318613773565b5b613322826137b6565b9050602081019050919050565b6000819050602082019050919050565b6000819050602082019050919050565b6000819050602082019050919050565b600081519050919050565b600081519050919050565b600081519050919050565b600081519050919050565b6000602082019050919050565b6000602082019050919050565b6000602082019050919050565b600082825260208201905092915050565b600082825260208201905092915050565b600082825260208201905092915050565b600081905092915050565b600082825260208201905092915050565b600082825260208201905092915050565b600081905092915050565b600061342882613587565b915061343383613587565b9250827fffffffffffffffffffffffffffffffffffffffffffffffffffffffffffffffff03821115613468576134676136e6565b5b828201905092915050565b600061347e82613587565b915061348983613587565b9250817fffffffffffffffffffffffffffffffffffffffffffffffffffffffffffffffff04831182151516156134c2576134c16136e6565b5b828202905092915050565b60006134d882613587565b91506134e383613587565b9250828210156134f6576134f56136e6565b5b828203905092915050565b600061350c82613567565b9050919050565b600061351e82613567565b9050919050565b60008115159050919050565b6000819050919050565b60007fffffffff0000000000000000000000000000000000000000000000000000000082169050919050565b600073ffffffffffffffffffffffffffffffffffffffff82169050919050565b6000819050919050565b600063ffffffff82169050919050565b82818337600083830152505050565b60005b838110156135ce5780820151818401526020810190506135b3565b838111156135dd576000848401525b50505050565b60006135ee82613587565b91506000821415613602576136016136e6565b5b600182039050919050565b6000600282049050600182168061362557607f821691505b6020821081141561363957613638613715565b5b50919050565b613648826137b6565b810181811067ffffffffffffffff8211171561366757613666613773565b5b80604052505050565b600061367b82613587565b91507fffffffffffffffffffffffffffffffffffffffffffffffffffffffffffffffff8214156136ae576136ad6136e6565b5b600182019050919050565b60006136c482613591565b915063ffffffff8214156136db576136da6136e6565b5b600182019050919050565b7f4e487b7100000000000000000000000000000000000000000000000000000000600052601160045260246000fd5b7f4e487b7100000000000000000000000000000000000000000000000000000000600052602260045260246000fd5b7f4e487b7100000000000000000000000000000000000000000000000000000000600052603260045260246000fd5b7f4e487b7100000000000000000000000000000000000000000000000000000000600052604160045260246000fd5b600080fd5b600080fd5b600080fd5b600080fd5b6000601f19601f8301169050919050565b7f50524f504f53414c20564f544500000000000000000000000000000000000000600082015250565b7f537472696e67733a20686578206c656e67746820696e73756666696369656e74600082015250565b7f446f75626c6520766f74696e67206e6f7420616c6c6f77656400000000000000600082015250565b7f496e73756666696369656e742066756e64730000000000000000000000000000600082015250565b7f496e73756666696369656e7420566f7465730000000000000000000000000000600082015250565b7f436f6e747269627574696f6e2073686f756c64206265206d6f7265207468656e60008201527f2030000000000000000000000000000000000000000000000000000000000000602082015250565b7f5061796d656e74205472616e7366657265640000000000000000000000000000600082015250565b7f5061796d656e7420697320616c72656164792073656e74000000000000000000600082015250565b7f5061796d656e74204661696c65642c736f6d657468696e672077656e7420777260008201527f6f6e670000000000000000000000000000000000000000000000000000000000602082015250565b50565b7f416363657373436f6e74726f6c3a206163636f756e7420000000000000000000600082015250565b7f50524f504f53414c5f5241495345440000000000000000000000000000000000600082015250565b7f5265656e7472616e637947756172643a207265656e7472616e742063616c6c00600082015250565b7f434f4e545249425554494f4e2052454345495645440000000000000000000000600082015250565b7f206973206d697373696e6720726f6c6520000000000000000000000000000000600082015250565b7f70726f706f73616c206475726174696f6e206578706972656400000000000000600082015250565b7f416363657373436f6e74726f6c3a2063616e206f6e6c792072656e6f756e636560008201527f20726f6c657320666f722073656c660000000000000000000000000000000000602082015250565b613ad581613501565b8114613ae057600080fd5b50565b613aec81613525565b8114613af757600080fd5b50565b613b0381613531565b8114613b0e57600080fd5b50565b613b1a8161353b565b8114613b2557600080fd5b50565b613b3181613587565b8114613b3c57600080fd5b50565b613b4881613591565b8114613b5357600080fd5b5056fe556e6175746f726973656420616363657373203a207374616b65686f6c646572206f6e6c79207065726d697474656450726f706f73616c206372656174696f6e20616c6c6f77656420666f7220746865207374616b65686f6c646572206f6e6c79a2646970667358221220a92948c3549265dc3df74133929c7e1be4f97c9954d85dc4c420a837f34b4dd464736f6c63430008060033",
  "linkReferences": {},
  "deployedLinkReferences": {}
}